:100000000C9462000C948A000C948A000C948A0070
:100010000C948A000C948A000C948A000C948A0038
:100020000C948A000C948A000C948A000C948A0028
:100030000C948A000C948A000C948A000C948A0018
:100040000C94B6030C948A000C946D010C94BB01C3
:100050000C948A000C948A000C948A000C948A00F8
:100060000C948A000C948A000000000024002700F1
:100070002A0000000000250028002B0000000000DE
:1000800023002600290004040404040404040202DA
:100090000202020203030303030301020408102007
:1000A0004080010204081020010204081020000012
:1000B0000007000201000003040600000000000029
:1000C0000000270311241FBECFEFD8E0DEBFCDBF55
:1000D00011E0A0E0B1E0E6ECF8E002C005900D927E
:1000E000A231B107D9F711E0A2E1B1E001C01D9240
:1000F000A73CB107E1F710E0C4ECD0E004C02297C0
:10010000FE010E945D04C23CD107C9F70E947D0335
:100110000C9461040C94000080E00E94B70090935E
:10012000130180931201845F91403CF482E061E00E
:100130000E94180189E061E006C082E060E00E9450
:10014000180189E060E00E941801089582E061E0F2
:100150000E94D90089E061E00E94D9008CE991E019
:1001600040E855E260E070E00E94F6010895982FA3
:100170008E3008F09E509770809100018295880F14
:10018000880F807C892B80937C0080917A0080642A
:1001900080937A0080917A0086FDFCCF20917800D0
:1001A00040917900942F80E030E0282B392BC90151
:1001B0000895CF93DF93482F50E0CA0186569F4F92
:1001C000FC0134914A575F4FFA018491882369F109
:1001D00090E0880F991FFC01E859FF4FA591B49159
:1001E000FC01EE58FF4FC591D491662351F42FB70F
:1001F000F8948C91932F909589238C9388818923EF
:100200000BC0623061F42FB7F8948C91932F9095C6
:1002100089238C938881832B88832FBF06C09FB747
:10022000F8948C91832B8C939FBFDF91CF9108958D
:10023000482F50E0CA0182559F4FFC012491CA010A
:1002400086569F4FFC0194914A575F4FFA013491B3
:10025000332309F440C0222351F1233071F02430BC
:1002600028F42130A1F0223011F514C02630B1F06D
:100270002730C1F02430D9F404C0809180008F77FA
:1002800003C0809180008F7D8093800010C084B572
:100290008F7702C084B58F7D84BD09C08091B00086
:1002A0008F7703C08091B0008F7D8093B000E32FE3
:1002B000F0E0EE0FFF1FEE58FF4FA591B4912FB75E
:1002C000F894662321F48C919095892302C08C9137
:1002D000892B8C932FBF089508951F920F920FB60C
:1002E0000F9211242F933F934F938F939F93EF93EC
:1002F000FF938091C00082FD1DC04091C6002091F7
:100300005401309155012F5F3F4F2F733070809112
:100310005601909157012817390771F0E091540167
:10032000F0915501EC5EFE4F4083309355012093D0
:10033000540102C08091C600FF91EF919F918F916F
:100340004F913F912F910F900FBE0F901F901895D6
:10035000E091A801F091A901E05CFF4F819191919A
:1003600020813181821B930B8F739070892B11F048
:100370000E946C0108951F920F920FB60F921124E4
:100380002F933F938F939F93EF93FF932091980127
:100390003091990180919A0190919B01281739071A
:1003A00031F48091C1008F7D8093C10014C0E09131
:1003B0009A01F0919B01E85AFE4F208180919A01A9
:1003C00090919B0101968F73907090939B01809305
:1003D0009A012093C600FF91EF919F918F913F91D9
:1003E0002F910F900FBE0F901F901895AF92BF9254
:1003F000DF92EF92FF920F931F93CF93DF93EC0165
:100400007A018B01DD24403081EE580780E06807D7
:1004100080E0780711F0DD24D39491E0A92EB12C6F
:10042000EC89FD89DD2069F0C50108A002C0880FB4
:10043000991F0A94E2F7808360E079E08DE390E011
:1004400005C0108260E874E88EE190E0A801970191
:100450000E94390421503040404050405695479505
:100460003795279580E12030380720F0DD2011F006
:10047000DD24D6CFE889F9893083EA89FB89208396
:1004800019A2EE89FF89408121E030E0C9010C8C7E
:1004900002C0880F991F0A94E2F7482B4083EE8927
:1004A000FF894081C9010D8C02C0880F991F0A94F1
:1004B000E2F7482B4083EE89FF894081C9010E8C09
:1004C00002C0880F991F0A94E2F7482B4083EE89F7
:1004D000FF8980810F8C02C0220F331F0A94E2F73C
:1004E000209528232083DF91CF911F910F91FF90BA
:1004F000EF90DF90BF90AF900895DC011C96ED91D6
:10050000FC911D97E05CFF4F219131918081918199
:10051000281B390B2F733070C9010895DC011C961C
:10052000ED91FC911D97E05CFF4F20813181E054FB
:10053000F040DF01AE5BBF4F8D919C911197281762
:10054000390719F42FEF3FEF07C08D919C91E80F09
:10055000F91F8081282F30E0C9010895DC011C9625
:10056000ED91FC911D97E05CFF4F20813181E054BB
:10057000F040DF01AE5BBF4F8D919C911197281722
:10058000390719F42FEF3FEF10C08D919C9111970F
:10059000E80FF91F20818D919C91119701968F731F
:1005A000907011969C938E9330E0C9010895DC0100
:1005B00091968C919197882339F05496ED91FC9106
:1005C0005597808186FFF9CF91961C920895CF931D
:1005D000DF93EC01EE85FF85E05CFF4F20813181E8
:1005E000E054F0402F5F3F4F2F733070DF01AE5B60
:1005F000BF4F8D919C91119728173907D1F3E05C7B
:10060000FF4F80819181E054F040E80FF91F608333
:10061000EE85FF85E05CFF4F31832083EE89FF8903
:10062000208181E090E00F8C02C0880F991F0A940E
:10063000E2F7282B208381E089A3EC89FD89808162
:100640008064808381E090E0DF91CF9108951092E3
:100650009F0110929E0188EE93E0A0E0B0E08093AD
:10066000A0019093A101A093A201B093A30185E002
:1006700091E090939D0180939C0184E191E090939F
:10068000A9018093A80188E591E09093AB01809344
:10069000AA0185EC90E09093AD018093AC0184ECCD
:1006A00090E09093AF018093AE0180EC90E0909346
:1006B000B1018093B00181EC90E09093B3018093FD
:1006C000B20182EC90E09093B5018093B40186EC86
:1006D00090E09093B7018093B60184E08093B801D5
:1006E00083E08093B90187E08093BA0185E080932D
:1006F000BB0181E08093BC010895CF93DF930E94FA
:10070000FE030E94A600C8EAD1E00E948C00209758
:10071000E1F30E94A801F9CFCF92DF92EF92FF920E
:100720000F931F93CF93DF937C016B018A01C0E08D
:10073000D0E00FC0D6016D916D01D701ED91FC9114
:100740000190F081E02DC7010995C80FD91F015014
:1007500010400115110571F7CE01DF91CF911F9166
:100760000F91FF90EF90DF90CF9008951F920F921E
:100770000FB60F9211242F933F938F939F93AF93B4
:10078000BF938091C2019091C301A091C401B09127
:10079000C5013091C6010196A11DB11D232F2D5F0A
:1007A0002D3720F02D570196A11DB11D2093C601B4
:1007B0008093C2019093C301A093C401B093C5017B
:1007C0008091BE019091BF01A091C001B091C10183
:1007D0000196A11DB11D8093BE019093BF01A0930E
:1007E000C001B093C101BF91AF919F918F913F9193
:1007F0002F910F900FBE0F901F901895789484B58D
:10080000826084BD84B5816084BD85B5826085BD0C
:1008100085B5816085BDEEE6F0E0808181608083F2
:10082000E1E8F0E0108280818260808380818160D5
:100830008083E0E8F0E0808181608083E1EBF0E09C
:10084000808184608083E0EBF0E080818160808340
:10085000EAE7F0E080818460808380818260808329
:100860008081816080838081806880831092C10054
:100870000895A1E21A2EAA1BBB1BFD010DC0AA1FE1
:10088000BB1FEE1FFF1FA217B307E407F50720F0F9
:10089000A21BB30BE40BF50B661F771F881F991F74
:1008A0001A9469F760957095809590959B01AC01BD
:1008B000BD01CF010895EE0FFF1F0590F491E02DCB
:0608C0000994F894FFCF3B
:1008C6000100000000E7028C037D02AE028E02D713
:0208D60002001E
:00000001FF
