:100000000C9463000C948B000C948B000C948B006C
:100010000C948B000C948B000C948B000C948B0034
:100020000C948B000C948B000C948B000C948B0024
:100030000C948B000C948B000C948B000C948B0014
:100040000C9421010C948B000C9468020C94B60261
:100050000C948B000C948B000C948B000C948B00F4
:100060000C948B000C948B000000000024002700EF
:100070002A0000000000250028002B0000000000DE
:1000800023002600290004040404040404040202DA
:100090000202020203030303030301020408102007
:1000A0004080010204081020010204081020000012
:1000B0000007000201000003040600000000000029
:1000C00000008D00220411241FBECFEFD8E0DEBF58
:1000D000CDBF11E0A0E0B1E0E2EFFBE002C005908F
:1000E0000D92A231B107D9F711E0A2E1B1E001C050
:1000F0001D92A03DB107E1F710E0C6ECD0E004C0CE
:100100002297FE010E94F305C23CD107C9F70E9465
:1001100078040C94F7050C9400000E946901609328
:1001200012017093130180931401909315010E94A2
:1001300069016093160170931701809318019093E1
:100140001901089580E00E94B201BC0190931C0146
:1001500080931B018EEA91E04AE050E00E949105F5
:1001600080911B0190911C0120911A018C529140A9
:1001700064F5222371F40E94690160931201709367
:100180001301809314019093150181E080931A016B
:1001900008950E946901209112013091130140914C
:1001A000140150911501621B730B840B950B695E52
:1001B00073408040904098F182E061E00E94130219
:1001C00089E061E00E9413020895222369F00E94F1
:1001D0006901609316017093170180931801909341
:1001E000190110921A0108950E94690120911601C7
:1001F000309117014091180150911901621B730B46
:10020000840B950B695E73408040904040F082E023
:1002100060E00E94130289E060E00E9413020895EA
:1002200082E061E00E94D40189E061E00E94D40193
:100230008EEA91E040E855E260E070E00E94F10251
:1002400008951F920F920FB60F9211242F933F9390
:100250008F939F93AF93BF9380912101909122013F
:10026000A0912301B0912401309125010196A11D97
:10027000B11D232F2D5F2D3720F02D570196A11D85
:10028000B11D209325018093210190932201A09319
:100290002301B093240180911D0190911E01A09132
:1002A0001F01B09120010196A11DB11D80931D0178
:1002B00090931E01A0931F01B0932001BF91AF91B5
:1002C0009F918F913F912F910F900FBE0F901F9094
:1002D00018958FB7F8942091210130912201409117
:1002E0002301509124018FBFB901CA010895789468
:1002F00084B5826084BD84B5816084BD85B582602B
:1003000085BD85B5816085BDEEE6F0E080818160C8
:100310008083E1E8F0E010828081826080838081C8
:1003200081608083E0E8F0E0808181608083E1EBA0
:10033000F0E0808184608083E0EBF0E08081816088
:100340008083EAE7F0E0808184608083808182603E
:100350008083808181608083808180688083109227
:10036000C1000895982F8E3008F09E5097708091AC
:1003700000018295880F880F807C892B80937C00F8
:1003800080917A00806480937A0080917A0086FD63
:10039000FCCF2091780040917900942F80E030E0EC
:1003A000282B392BC9010895CF93DF93482F50E0B4
:1003B000CA0186569F4FFC0134914A575F4FFA019C
:1003C0008491882369F190E0880F991FFC01E85916
:1003D000FF4FA591B491FC01EE58FF4FC591D49108
:1003E000662351F42FB7F8948C91932F909589231D
:1003F0008C93888189230BC0623061F42FB7F89405
:100400008C91932F909589238C938881832B88835B
:100410002FBF06C09FB7F8948C91832B8C939FBFFE
:10042000DF91CF910895482F50E0CA0182559F4F28
:10043000FC012491CA0186569F4FFC0194914A57B2
:100440005F4FFA013491332309F440C0222351F164
:10045000233071F0243028F42130A1F0223011F53E
:1004600014C02630B1F02730C1F02430D9F404C0D4
:10047000809180008F7703C0809180008F7D809372
:10048000800010C084B58F7702C084B58F7D84BD95
:1004900009C08091B0008F7703C08091B0008F7D3C
:1004A0008093B000E32FF0E0EE0FFF1FEE58FF4FF8
:1004B000A591B4912FB7F894662321F48C9190956F
:1004C000892302C08C91892B8C932FBF08950895A6
:1004D0001F920F920FB60F9211242F933F934F93B9
:1004E0008F939F93EF93FF938091C00082FD1DC077
:1004F0004091C60020916601309167012F5F3F4F08
:100500002F73307080916801909169012817390725
:1005100071F0E0916601F0916701EA5DFE4F408362
:10052000309367012093660102C08091C600FF915D
:10053000EF919F918F914F913F912F910F900FBE0F
:100540000F901F901895E091BA01F091BB01E05C0B
:10055000FF4F8191919120813181821B930B8F7389
:100560009070892B11F00E94670208951F920F92DC
:100570000FB60F9211242F933F938F939F93EF9376
:10058000FF932091AA013091AB018091AC01909131
:10059000AD012817390731F48091C1008F7D809318
:1005A000C10014C0E091AC01F091AD01E659FE4FDD
:1005B00020818091AC019091AD0101968F73907074
:1005C0009093AD018093AC012093C600FF91EF9111
:1005D0009F918F913F912F910F900FBE0F901F9081
:1005E0001895AF92BF92DF92EF92FF920F931F93F5
:1005F000CF93DF93EC017A018B01DD24403081EE53
:10060000580780E0680780E0780711F0DD24D39474
:1006100091E0A92EB12CEC89FD89DD2069F0C5019E
:1006200008A002C0880F991F0A94E2F7808360E057
:1006300079E08DE390E005C0108260E874E88EE117
:1006400090E0A80197010E94CF0521503040404022
:100650005040569547953795279580E120303807CB
:1006600020F0DD2011F0DD24D6CFE889F989308330
:10067000EA89FB89208319A2EE89FF89408121E064
:1006800030E0C9010C8C02C0880F991F0A94E2F770
:10069000482B4083EE89FF894081C9010D8C02C03F
:1006A000880F991F0A94E2F7482B4083EE89FF894F
:1006B0004081C9010E8C02C0880F991F0A94E2F78D
:1006C000482B4083EE89FF8980810F8C02C0220F66
:1006D000331F0A94E2F7209528232083DF91CF91DE
:1006E0001F910F91FF90EF90DF90BF90AF90089512
:1006F000DC011C96ED91FC911D97E05CFF4F219170
:10070000319180819181281B390B2F733070C90181
:100710000895DC011C96ED91FC911D97E05CFF4F64
:1007200020813181E054F040DF01AE5BBF4F8D91FD
:100730009C9111972817390719F42FEF3FEF07C045
:100740008D919C91E80FF91F8081282F30E0C9011D
:100750000895DC011C96ED91FC911D97E05CFF4F24
:1007600020813181E054F040DF01AE5BBF4F8D91BD
:100770009C9111972817390719F42FEF3FEF10C0FC
:100780008D919C911197E80FF91F20818D919C917B
:10079000119701968F73907011969C938E9330E011
:1007A000C9010895DC0191968C919197882339F0C5
:1007B0005496ED91FC915597808186FFF9CF9196E3
:1007C0001C920895CF93DF93EC01EE85FF85E05CEA
:1007D000FF4F20813181E054F0402F5F3F4F2F7356
:1007E0003070DF01AE5BBF4F8D919C911197281740
:1007F0003907D1F3E05CFF4F80819181E054F040F4
:10080000E80FF91F6083EE85FF85E05CFF4F3183C1
:100810002083EE89FF89208181E090E00F8C02C067
:10082000880F991F0A94E2F7282B208381E089A37F
:10083000EC89FD8980818064808381E090E0DF9194
:10084000CF9108951092B1011092B00188EE93E01B
:10085000A0E0B0E08093B2019093B301A093B40103
:10086000B093B50185E091E09093AF018093AE0124
:1008700086E291E09093BB018093BA018AE691E011
:100880009093BD018093BC0185EC90E09093BF01F3
:100890008093BE0184EC90E09093C1018093C001ED
:1008A00080EC90E09093C3018093C20181EC90E0D2
:1008B0009093C5018093C40182EC90E09093C701AE
:1008C0008093C60186EC90E09093C9018093C801A3
:1008D00084E08093CA0183E08093CB0187E080931A
:1008E000CC0185E08093CD0181E08093CE01089515
:1008F000CF93DF930E9477010E941001C3EAD2E0F8
:100900000E94A2002097E1F30E94A302F9CFCF92A8
:10091000DF92EF92FF920F931F93CF93DF937C01AF
:100920006B018A01C0E0D0E00FC0D6016D916D016E
:10093000D701ED91FC910190F081E02DC70109955F
:10094000C80FD91F015010400115110571F7CE01D4
:10095000DF91CF911F910F91FF90EF90DF90CF909B
:100960000895EF92FF920F931F938C01DC01ED919C
:10097000FC910190F081E02D6DE009957C01D8019A
:10098000ED91FC910190F081E02DC8016AE009959C
:100990009C012E0D3F1DC9011F910F91FF90EF90FB
:1009A0000895CF93DF93EC016115710519F420E0F0
:1009B00030E00FC0DB010D900020E9F71197A61B76
:1009C000B70BE881F9810280F381E02DAD01099533
:1009D0009C01C901DF91CF9108954F925F927F9260
:1009E0008F929F92AF92BF92CF92DF92EF92FF923F
:1009F0000F931F93DF93CF93CDB7DEB7A1970FB6B9
:100A0000F894DEBF0FBECDBF2C01742ECB01223077
:100A100008F42AE019A231E2C32ED12CCC0EDD1E3F
:100A2000822E9924AA24BB24672D752FA501940139
:100A30000E94CF0579018A01C801B701A50194017F
:100A40000E94B005472D461B0894C108D1084A30C2
:100A500014F4405D01C0495CF6014083E114F104E7
:100A60000105110521F07E2C5F2DC801DDCFC201EB
:100A7000B6010E94D104A1960FB6F894DEBF0FBE56
:100A8000CDBFCF91DF911F910F91FF90EF90DF903D
:100A9000CF90BF90AF909F908F907F905F904F903E
:100AA0000895CF92DF92EF92FF920F931F93CF930F
:100AB000DF93EC016A017B012115310541F4E881E6
:100AC000F9810190F081E02D642F09951FC02A3033
:100AD0003105D1F477FF17C0E881F9810190F081E9
:100AE000E02D6DE209958C0144275527BA014C1978
:100AF0005D096E097F09CE012AE00E94ED0498018C
:100B0000280F391F04C02AE00E94ED049C01C9018E
:100B1000DF91CF911F910F91FF90EF90DF90CF90D9
:100B20000895CF92DF92EF92FF920F931F936C0183
:100B30007B019A010027F7FC0095102FB801A7014F
:100B40000E9451058C01C6010E94B104080F191FB3
:100B5000C8011F910F91FF90EF90DF90CF90089503
:100B6000629FD001739FF001829FE00DF11D649F91
:100B7000E00DF11D929FF00D839FF00D749FF00D1D
:100B8000659FF00D9927729FB00DE11DF91F639FBE
:100B9000B00DE11DF91FBD01CF0111240895A1E29F
:100BA0001A2EAA1BBB1BFD010DC0AA1FBB1FEE1FE7
:100BB000FF1FA217B307E407F50720F0A21BB30B32
:100BC000E40BF50B661F771F881F991F1A9469F7AE
:100BD00060957095809590959B01AC01BD01CF010A
:100BE0000895EE0FFF1F0590F491E02D0994F894FD
:020BF000FFCF35
:100BF2000100000000E20387047803A9038903D2FD
:020C02000300ED
:00000001FF
